:020000040800F2
:10000000A804002009020008611A000885190008E8
:100010005D1A000819030008DD2200081B02000811
:10002000000000000000000000000000311C00087B
:100030001D03000800000000651A00084D1C0008A0
:1000400025020008250200082502000825020008F4
:1000500025020008250200082502000825020008E4
:1000600025020008250200082502000825020008D4
:1000700025020008250200082502000825020008C4
:1000800025020008250200082502000825020008B4
:1000900025020008250200082502000825020008A4
:1000A0002502000825020008250200082502000894
:1000B0002502000825020008250200082502000884
:1000C0002502000825020008250200082502000874
:1000D0002502000825020008250200082502000864
:1000E0002502000825020008250200082502000854
:1000F0002502000825020008250200082502000844
:100100002502000825020008250200082502000833
:100110002502000825020008250200082502000823
:100120002502000825020008250200082502000813
:100130002502000825020008250200082502000803
:1001400025020008250200082502000825020008F3
:1001500025020008250200082502000825020008E3
:1001600025020008250200082502000825020008D3
:100170002502000800000000250200080000000021
:1001800025020008250200082502000825020008B3
:1001900025020008250200082502000825020008A3
:1001A0002502000825020008250200082502000893
:1001B00025020008000000002502000825020008B2
:1001C00025020008000000002502000825020008A2
:1001D0002502000825020008250200082502000863
:1001E0002502000825020008250200082502000853
:1001F00000000000DFF80CD000F07CF80048004759
:1002000051230008A80400200748804707480047FA
:10021000FEE7FEE7FEE7FEE7FEE7FEE7FEE7FEE7B6
:10022000FEE7FEE7FEE70000551D0008F5010008A7
:100230002DE9F05F0546002092469B46884606461B
:10024000814640241BE0284641464746224600F0AE
:1002500041F853465A46C01A914110D311461846E8
:10026000224600F028F82D1A67EB01084F46224677
:100270000120002100F01FF817EB00094E41201E5D
:10028000A4F10104DFDC484631462A464346BDE876
:10029000F09FD2B201E000F8012B491EFBD270475B
:1002A0000022F6E710B513460A4604461946FFF742
:1002B000F0FF204610BD202A04DB203A00FA02F1AC
:1002C000002070479140C2F1200320FA03F3194344
:1002D00090407047202A04DB203A21FA02F00021E6
:1002E000704721FA02F3D040C2F120029140084346
:1002F00019467047064C074D06E0E06840F00103E0
:1003000094E8070098471034AC42F6D3FFF776FF25
:10031000B0240008D0240008FEE700007047000069
:10032000FEE700002DE9F04F84B00D68002D00F0CD
:10033000DA8000F13C4241F6000702F1FF72C4F29C
:10034000022789464FEAB2230721B84208BF062197
:10035000062B38BF4FEAB2214FF0000B4FF00008D8
:100360000127002400230091CDF80C900FE000BF7E
:10037000D9F80050013335FA07F104F1020407F10E
:10038000010708F108080BF1040B00F0AC807E1E99
:10039000012101FA06FA15EA0A010291E8D0D9F81A
:1003A00004E0BEF1120F00F29780012101FA0EF570
:1003B00015F0061F00F090805900D0F808C0019198
:1003C000032101FA04F50399D1F80C902CEA0501F8
:1003D00009FA04F21143DDF80C90816041684FEA9C
:1003E0001E1221EA0A01DDF804A0B2406FEA050CF2
:1003F00011434160C168D9F8082001EA0C0102FAF2
:100400000AF211434EF01002122AC16017D16FF0A8
:10041000030101EA56010BF01C0501440F22D1F83B
:1004200020E002FA05F9039A2EEA090E1269DDF8B6
:100430000C90AA4042EA0E020A62D9F804E0016870
:100440000EF0030201EA0C0102FA0AF211435FEA1C
:10045000CE0201608CD54FF2004E26F00301C4F2AB
:10046000020E7144D1F860C008F018050F22AA40AE
:100470002CEA020C009A02FA05F545EA0C020A661B
:10048000DEF880C0029ED9F804204CEA0605D103AC
:1004900058BF2CEA0605CEF88050DEF884C09103E0
:1004A0004CEA060558BF2CEA0605CEF88450DEF863
:1004B00000C0D1024CEA060558BF2CEA0605CEF86A
:1004C0000050DEF80410920241EA060558BF21EA06
:1004D0000605CEF804504BE7032101FA04F56FEA54
:1004E000050CA24686E704B0BDE8F08F426902EA37
:1004F0000103914341EA0341816170471823002AB7
:1005000008BF2823C150704740F2A400C2F2000087
:100510000068704740F2040040F2A401C2F20000FB
:10052000C2F2000140680A68104408607047000089
:1005300080B5042000F07CF801F0B6FB002000F04C
:1005400009F800281CBF012080BD00F02BF8002016
:1005500080BD000070B540F20406C2F2000671686A
:10056000E1B1044640F20C00C2F200004FF47A728E
:100570000068B2FBF1F1B0FBF1F001F069F8072C73
:100580004FF0010508D838B94FF0FF30214600225E
:10059000002500F021F83460284670BD012528466A
:1005A00070BD000082B041F25800C4F202008168C0
:1005B00041F001018160816801F00101019101991F
:1005C000016841F080510160006800F080500090A7
:1005D000009802B000F08AB810B54EF60C5CCEF26E
:1005E000000CDCF80030C3F3022E8EF00704032C5D
:1005F00028BF0324BEF104034FF0FF3E38BF0023A1
:100600000EFA04F4A14399400EFA03F39A4300F062
:100610000F03043B1143634449010C3300F1604272
:10062000B0F1FF3FC8BF02F56443197010BD000070
:100630004EF60C51CEF200010A684FF6FF031A4045
:1006400060F30A2242F0806040F0FD70086070475D
:1006500047F21401C4F2000151F8142C51F8043C83
:1006600013F4104F3FD051F8083C1B043BD402F464
:10067000C062824204BF0020704751F8142C22F45B
:10068000C062104341F8140C40F20C00C2F20000AA
:10069000006845F6C5224009C0F67C22A0FB020294
:1006A000D00900EB80000A68431C18BF12F4806276
:1006B00013D00A68002818BF12F480620DD00A68AF
:1006C000012818BF12F4806207D00A68022804D0FB
:1006D00012F48062A0F10400E5D10868032140050E
:1006E00001EAE070704701207047000047F20800FF
:1006F000C4F20000016841F48041016070470000CD
:1007000047F20400C4F20000016841F40071016086
:100710007047000047F20000C4F20000006800F4D7
:10072000C06070472DE9F04F81B00446407841F237
:1007300088070007C4F2020725D5E06E4FEA701162
:1007400004290BD8DFE801F0030C141A1A00201D4D
:10075000002101F089F90646B0B907E0012613E04F
:1007600004F1200001F006FA064668B9E06E05E0E3
:1007700057F87C1C41F4803147F87C1C796921F0E2
:10078000E0010843786100266078C00601D4B046D5
:100790003BE0206F4FEA302004280AD8B046DFE85B
:1007A00000F0031021151500201D002101F05CF957
:1007B0000BE04FF001084FF00109A07880070CD53D
:1007C00027E004F1200001F0D5F98046B8F1000FD0
:1007D000C14612D0A07880071BD44D462068C107BF
:1007E0006BD086E057F87C0CB04640F4803047F878
:1007F0007C0CB8F1000FC146ECD17869216F20F470
:10080000E06008434FF000087861B146A0788007A7
:10081000E3D557F8300C10F0805A0BD157F8300C54
:1008200040F0805047F8300C57F8300C00F0805002
:100830000090009847F20005C4F20005286840F4D3
:1008400080702860FFF760FE064600BF2868C0057C
:1008500008D4FFF759FE801B0228F7D94FF0030890
:10086000032524E0B8F1000F454620D1B86810F404
:10087000407012D0D4F8901088420BD0B868B96894
:1008800020F4407041F48031B960B96821F48031BE
:10089000B960B860C00740F07981B868D4F89010AA
:1008A00020F4407008434FF000084D46B860BAF19C
:1008B000000F15D02068C1071BD1810721D4410743
:1008C00027D401072DD4C10633D4810639D481053C
:1008D0003FD4410545D441024BD4800151D47CE042
:1008E00057F8300C20F0805047F8300C2068C107D2
:1008F000E3D03968626B21F003011143396081074D
:10090000DDD53968A26B21F00C0111433960410734
:10091000D7D53968E26B21F0300111433960010706
:10092000D1D53968226C21F0C00111433960C1066C
:10093000CBD53968626C21F440711143396081066E
:10094000C5D53968A26C21F4406111433960810535
:10095000BFD53968E26D21F440211143396041056A
:10096000B9D53968226E21F4401111433960410232
:10097000B3D53968626E21F44001114339608001BA
:100980002BD5A06E60B1B0F1007F18D0B0F1807FA0
:1009900040F08C8057F87C0C40F4801047F87C0CB9
:1009A000B8F1000F13D0216848061AD4080620D4E5
:1009B000C80526D4C8022CD4880432D443E0201DB4
:1009C000002101F051F88046B8F1000FEBD13868F2
:1009D000A16E20F0407008433860A84621684806A0
:1009E000E4D53868E26C20F44050104338600806C3
:1009F000DED53868226D20F4404010433860C805C9
:100A0000D8D53868626D20F4403010433860C80291
:100A1000D2D57869A26D20F0030010437861880474
:100A200011D53A68606F22F040620243B0F1806FE6
:100A30003A6030D0B0F1006F05D157F87C0C40F42B
:100A4000801047F87C0C08033DD5A06FB0F5804FAF
:100A500008D1786940F48040786157F87C0C40F404
:100A600080302EE03A68B0F1006F22F0406242EA36
:100A700000023A607A6922F480427A611DD0B0F1B6
:100A8000806F20D1201D012100F0EEFF2168002899
:100A900018BF804617E0201D012100F0E5FF216806
:100AA000002818BF80460803CFD40CE04FF001089F
:100AB000216848067FF57AAF93E757F87C0C40F43D
:100AC000801047F87C0C480311D53A68E06F22F09B
:100AD00040620243B0F1806F3A601DD0B0F1006F08
:100AE00005D157F87C0C40F4801047F87C0C480482
:100AF0001CD53868D4F8802020F040501043B2F163
:100B0000805F386012D1201D022100F0ADFF216806
:100B1000002818BF804609E0201D012100F0A4FF35
:100B20002168002818BF80464804E2D4C80307D4CF
:100B300088020ED4C80115D4404601B0BDE8F08F3C
:100B40007869D4F8842020F004001043786188028A
:100B5000F0D57869D4F8882020F018001043786127
:100B6000C801E9D57869D4F88C1020F44010084306
:100B7000B1F5001F7861DFD157F87C0C40F480108C
:100B800047F87C0C404601B0BDE8F08FFFF7BCFC95
:100B9000064641F2883B4FF003080325B8688007FA
:100BA0003FF57BAEFFF7B0FC801B5845F6D97EE6DB
:100BB0002DE9F047002800F0198142F20008C4F244
:100BC00002080446D8F800000D4600F00F008842E5
:100BD0000DD2D8F8000020F00F002843C8F800001C
:100BE000D8F8000000F00F00A84240F0FF80206815
:100BF00041F2080AC107C4F2020A03D1810740F199
:100C0000B180A7E06168B1B102291CD0032922D1CB
:100C10005AF8081C890140F1E980DAF8041001F063
:100C2000030101292ED15AF8081C09072CD4DAF83F
:100C30008C10090A2BE05AF8080C80075CBF0120D1
:100C4000BDE8F0870CE05AF8080C80035CBF012077
:100C5000BDE8F08704E05AF8080C400540F1C68072
:100C600000F0FCF84BF20041C0F2C441884245D983
:100C7000DAF80000082161F307104FF00109CAF803
:100C800000003DE000210AE05AF8081C090942F280
:100C9000384201F00F01C0F6000252F82110DAF8D4
:100CA0000420DAF80430920742F20042C3F303133F
:100CB000C0F2F40258BF0A46DAF804100133B2FB5E
:100CC000F3F2C1F30621DAF8043001FB02F1C3F3B9
:100CD0004162022303EB4202B1FBF2F14BF200420C
:100CE000C0F2C442914209D9DAF8001011F0F00FB5
:100CF000BED0800702D5A0680028B9D04FF0000907
:100D0000DAF80000616820F003000843CAF8000028
:100D1000FFF7FAFB064641F2883700BFDAF8000019
:100D2000616800F00C00B0EB810F08D0FFF7ECFB1E
:100D3000801BB84284BF0320BDE8F087EEE720683F
:100D4000810707D4B9F1000F0CD0DAF8001021F0B8
:100D5000F00105E0DAF80010A26821F0F00111437B
:100D6000CAF80010D8F8001001F00F01A9420CD900
:100D7000D8F8001021F00F012943C8F80010D8F866
:100D8000001001F00F01A94230D1410707D5DAF870
:100D90000010E26821F4E0611143CAF80010000776
:100DA00008D5DAF80000216920F4605040EAC1005B
:100DB000CAF8000000F052F8DAF8001042F22042BF
:100DC000C1F30311C0F60002525C40F20401C2F20A
:100DD0000001096840F20C0320FA02F2C2F200039B
:100DE00008461A60BDE8F047FFF7B4BB0120BDE834
:100DF000F087000080B500F031F841F20801C4F23C
:100E000002010A680968C2F3031242F22043C0F6E5
:100E10000003C1F302219A5C42F23043C0F60003A2
:100E2000595CD040C84080BD80B500F017F841F251
:100E30000801C4F202010A680968C2F3031242F20F
:100E40002043C0F60003C1F3C2219A5C42F2304352
:100E5000C0F60003595CD040C84080BD41F20C018F
:100E6000C4F2020151F8040C10F00C0208680ED014
:100E70000C2A04BF00F00300012808D042F2004011
:100E8000042AC0F2F40018BF082A36D1704751F87E
:100E90000C0C000703D4D1F88800000A02E051F8D6
:100EA0000C0C000942F2384300F00F00C0F60003BA
:100EB00053F82030002A184618BF00200C2A18BF0B
:100EC000704708680A68800742F20040C2F30312C4
:100ED000C0F2F40058BF18460B6801320968B0FB35
:100EE000F2F0C3F30622C1F3416102FB00F00222DB
:100EF00002EB4101B0FBF1F0704700200023DDE779
:100F00002DE9F04184B0002800F0928341F2000600
:100F10000446C4F20206B068F168227800F00C07BB
:100F2000D00601F003081AD42078C0076ED0082F2D
:100F300065D00C2F08BFB8F1030F60D06068B0F522
:100F4000803F07D0B0F5A02F40F04C82306840F4CD
:100F500080203060306840F4803030604DE2EFB186
:100F60000C2F08BFB8F1010F18D0E16930680029D3
:100F700000F07D8140F001003060FFF7C5FA0546C2
:100F80003068800700F1C281FFF7BEFA401B0228DB
:100F90004FF00300F4D904B0BDE8F0813068800759
:100FA00003D5E069002800F04383656A30680007D4
:100FB0005ABFD6F894000009306800F0F00085426E
:100FC00040F2FD80B06DC00000F1B281B06D40F024
:100FD0008050B065B06D00F0805002900298FFF72D
:100FE00099FBB16D21F08051B1656FF40071084239
:100FF00000F0A581802D40F2EC81032047E23068AB
:10100000800303D56068002800F0128320788007F1
:101010002BD5042F1BD00C2F08BFB8F1020F16D010
:10102000E1683068002900F0F78140F4807030609A
:10103000FFF76AFA054600BF306840050ED4FFF797
:1010400063FA401B02284FF00300F5D9A3E730688C
:10105000400503D5E068002800F0EA827068216945
:1010600020F0FE4040EA01607060207800074ED416
:10107000207840076FD42078800600F1C880E06AAD
:10108000002840D0B16801F00C010C2940F05F81CC
:10109000012800F0CD82F068216B00F003028A4243
:1010A00040F0C682616B6FF00F0202EB011100F09D
:1010B000F0028A4240F0BC82A16B00F4FE42B2EB27
:1010C000012F40F0B582E16B00F07842B2EBC16FC6
:1010D00040F0AE82216C0022CFF6E07202EA0151AC
:1010E00000F4C002A1F500118A4240F0A182616CB7
:1010F0004FF07E4202EA016100F0C06001F17E41E2
:10110000884240F09582002004B0BDE8F08160691B
:10111000002800F09680A069D6F89410002821F0ED
:10112000100118BF1031C6F89410D6F8940040F0A2
:101130000100C6F89400FFF7E7F90546D6F89400D9
:10114000800795D4FFF7E0F9401B0728F6D9032064
:1011500004B0BDE8F081B06D10F0805808D1B06DDA
:1011600040F08050B065B06D00F080500190019863
:1011700047F20007C4F200073868C00511D4386888
:1011800040F480703860FFF7BFF905463868C00545
:1011900007D4FFF7B9F9401B02284FF00300F5D937
:1011A000F9E6A568E80775D1D6F8900020F00100AF
:1011B000C6F89000D6F8900020F0040076E0306881
:1011C000002F40F008003060306820F0F00040EA66
:1011D000050030607068216A20F47F4040EA0120F9
:1011E000706040F00982B06DC00000F14581B06DC3
:1011F00040F08050B065B06D00F0805003900398CF
:10120000FFF788FAB16D21F08051B16536E1A16A2E
:10121000D6F89800002900F0C78040F00100C6F819
:101220009800FFF771F90546D6F8980080073FF55A
:1012300026AFFFF769F9401B02284FF00300F3D9EE
:10124000A9E6D6F8940020F00100C6F89400FFF754
:101250005BF90546D6F8940080077FF509AFFFF7E4
:1012600053F9401B07284FF00300F3D993E620F011
:1012700001003060FFF748F9054600BF306880077D
:101280007FF552AEFFF740F9401B02284FF00300F4
:10129000F4D980E6D6F89000690705D540F004003F
:1012A000C6F89000D6F8900040F00100C6F8900013
:1012B000FFF72AF9002D054641F2883714D000BF08
:1012C000D6F89000800757D4FFF71EF9401BB842AC
:1012D0004FF00300F4D95EE6FFF716F9401BB84261
:1012E0004FF003003FF657AED6F890008007F3D4D6
:1012F000D6F89000000600F15B81B8F1000F7FF492
:10130000BAAEB06D20F08050B065B4E6306840F001
:10131000080030603068D4E9082120F0F00008436C
:101320003060706820F47F4040EA02207060FBE586
:10133000FFF7F0F96FF4007108427FF45BAE812D86
:10134000C0F0A4800120A02D88BF02209FE031685A
:10135000022821F08071316070D1FFF7D5F8054681
:101360003068800140F1E680FFF7CEF8401B02288C
:101370004FF00300F4D90EE6A168D6F890000906F4
:1013800000F1A68020F0800041F28837C6F8900076
:10139000D6F890000005B0D5FFF7B6F8401BB8426C
:1013A0004FF00300F4D9F6E520F00100C6F89800EC
:1013B000FFF7AAF8054600BFD6F8980080077FF52A
:1013C0005EAEFFF7A1F8401B02284FF00300F3D9EF
:1013D000E1E5A5F17000B0FA80F04009802D08BF6A
:1013E000022054E03168002821F4803131603168F6
:1013F00021F48021316000F08580FFF785F80546F3
:10140000306880033FF502AEFFF77EF8401B64288A
:101410004FF00300F4D9BEE520F480703060FFF790
:1014200073F80546306840057FF51FAEFFF76CF88E
:10143000401B02284FF00300F4D9ACE5306810F0EF
:10144000205F03D1F06820F00300F060F0684FF6F1
:10145000FF71CFF6EE610840F060FFF755F80446E3
:10146000306880017FF54FAEFFF74EF8001B022871
:101470004FF00300F4D98EE5FFF74CF96FF40071DB
:10148000084238D0802D4CD90320A7E0002042F23A
:101490000001C4F202010A6822F00F0202440A604D
:1014A000096801F00F01814240F0C280306840F0CD
:1014B000080030603068D4E9082120F0F0000843CB
:1014C0003060706820F47F4040EA0220706093E052
:1014D00040F0800041F28837C6F89000D6F89000BE
:1014E00000053FF50AAFFFF70FF8401BB8424FF079
:1014F0000300F3D94FE5812D6FD30120A02D88BFC4
:1015000002206BE0FFF700F80546306880037FF5A6
:101510007DADFEF7F9FF401B64284FF00300F4D9BE
:1015200039E5A5F17000B0FA80F04009802D08BFC0
:10153000022053E0F06848F20C01C0F29F1100EA6B
:10154000010C04F13007D4E910540020CFF6E0700C
:101550008ECF00EA05506FF00F0505EB021241EA4D
:101560000C01114341EA0321A0F500104FF07E4524
:1015700005EA0462084340EAC76002F17E4108437D
:10158000F060306840F080703060F06840F080704B
:10159000F060FEF7B9FF0446306880013FF5B3AD57
:1015A000FEF7B2FF001B02284FF00300F4D9F2E46B
:1015B000D6F8900041F2883720F08000C6F89000FD
:1015C000D6F8900000057FF598AEFEF79DFF401B12
:1015D000B8424FF00300F3D9DDE4002042F20001ED
:1015E000C4F202010A6822F00F0202440A6009688C
:1015F00001F00F0181421BD1FFF730FCB16842F2CC
:101600002042C1F30311C0F60002515C40F20C020B
:1016100020FA01F140F20400C2F200000068C2F2B8
:1016200000021160FEF796FF00287FF4B4AC7BE463
:10163000012004B0BDE8F0814EF21001CEF20001AD
:101640000A68042822F0040208BF04320A607047C6
:10165000411E0020B0EB116F1CBF012070474EF2FD
:101660001002CEF2000251604EF62351CEF200017C
:10167000E0230B700721906011607047D0F8801054
:10168000012904BF022070472421C0F88410026899
:101690001168136823F00103136021F00053002147
:1016A000416613602022C0F88420C0F880100846EC
:1016B00070470000B0B5D0F88020012A04BF022096
:1016C000B0BD01232422C0F88030C0F88420026815
:1016D000D0F864E0D2F800C01468BEF1000F24F026
:1016E00001041460946824F0606441EA040191608C
:1016F00019D09168936842F2A04E5B0FC0F6000EBD
:1017000042F2A8451EF80340C0F60005C1F342614D
:10171000EB5CE400B4FBF3F31EF80140695CE50008
:10172000B5FBF1F100E00121A0F868102021A0F83C
:101730006A30C2F800C0C0F884100021C0F88010E0
:101740000846B0BDB0B5D0F88020012A04BF022001
:10175000B0BD01232422C0F88030C0F88420026884
:10176000D0F864E0D2F800C01468BEF1000F24F095
:1017700001041460946824F0604441EA040191601B
:1017800019D09168936842F2A04E5B0FC0F6000E2C
:1017900042F2A8451EF80340C0F60005C1F34261BD
:1017A000EB5CE400B4FBF3F31EF80140695CE50078
:1017B000B5FBF1F100E00121A0F868102021A0F8AC
:1017C0006A30C2F800C0C0F884100021C0F8801050
:1017D0000846B0BD10B5B0B10446D0F8840028B9B1
:1017E0000020C4F88000204600F028F82420C4F827
:1017F00084002068016821F001010160204600F0AA
:101800008DFB012801D1012010BDA06A00281CBF5A
:10181000204600F0A9FA2168486820F4904048600A
:10182000886820F02A008860086840F0010220469D
:101830000A60BDE8104000F00BBB0000B0B5AAB0D4
:1018400004460025684694212995CDE92755CDE920
:101850002555FEF725FD206848F20001C4F200017D
:10186000884201D02AB0B0BD202000906846129571
:10187000FEF758FF002818BFFEF752FD4FF4C07066
:101880002590022026900020CDE9270008202990ED
:1018900041F60000C4F2022025A9FEF743FD2AB05C
:1018A000B0BD00002DE9F04381B00446D0F88400BB
:1018B00020280ED10E4600294FF001001CBF17460C
:1018C000002A02D101B0BDE8F083D4F880000128DD
:1018D00003D1022001B0BDE8F0830120C4F88000EC
:1018E0004FF0000921201D46C4F88C90C4F88400F4
:1018F000FEF70AFEA4F85470A4F85670A1680746D3
:10190000B1F5805F07D1206900281CBF30464E46E4
:10191000B046064601E04FF00008C4F8809008E0A9
:1019200016F8010B21688862B4F856000138A4F853
:101930005600B4F8560088B12046802100223B466C
:10194000009500F045FC88B9002EE9D138F8020B6B
:1019500021686FF35F2088620026E5E7204640217A
:1019600000223B46009500F033FC18B1032001B083
:10197000BDE8F0832020C4F88400002001B0BDE859
:10198000F0830000FEE7000010B584B041F24C0483
:10199000C4F20204206840F040002060206800F09B
:1019A000400003900398FEF7ABFE206840F0010072
:1019B0002060206800F0010002900298206940F049
:1019C00001002061206900F001000190019804B03D
:1019D00010BD000080B540F2140048F200034FF43F
:1019E000E131C2F20000C4F2000300224FF00C0CFF
:1019F000C0E900310921C0E90222C0E9042C82615A
:101A0000C0E9082182624266FFF7E4FE002818BFA1
:101A1000FEF786FC40F21400C2F200000021FFF73E
:101A200091FE002818BFFEF77BFC40F21400C2F2C2
:101A300000000021FFF73EFE002818BFFEF770FCF3
:101A400040F21400C2F20000FFF718FE002808BFA1
:101A500080BDBDE88040FEF763BC0000FEE70000EB
:101A60007047000070470000F0B581B00446006880
:101A700041F2000703280D46C4F2020709D00228EC
:101A80001BD0012802D13868800706D4012001B09C
:101A9000F0BD386810F4C02FF8D0386820F08060AE
:101AA0003860FEF731FD06463868000109D5FEF7BB
:101AB0002BFD801B0228F7D952E038684005E5D598
:101AC000EBE7012D0DD00DBB3869D4E9022348F2B4
:101AD0000C01C0F2FF710840216840EA0222D806DA
:101AE00025E0386948F20C0122690026CFF6FF1183
:101AF000CFF6E07601F1B461A36806EA0256014030
:101B0000206841EA0322A6F5001110E0386948F286
:101B10000C016369CFF6FF11A2684FF07E460140C9
:101B200006EA0363206841EA022203F17E4163680A
:101B30006FF00F0606EB0313104308431843386198
:101B4000386840F080603860FEF7DEFC054600BF74
:101B50003868000107D4FEF7D7FC401B0228F7D9EC
:101B6000032001B0F0BDA069396908433861002045
:101B700001B0F0BD70B50446006841F200060328CC
:101B8000C4F2020609D002280DD0012809D130681C
:101B900080075CBF012070BD0AE0306810F4C02FE0
:101BA00006D1012070BD306840055CBF012070BDCA
:101BB000306820F080503060FEF7A6FC054600BF7C
:101BC0003068800007D5FEF79FFC401B022884BFC9
:101BD000032070BDF4E7706948F20C01C0F2FF7198
:101BE000084094E82E0040EA03206FF00F0340EA1B
:101BF000C56003EB0212084310437061306840F087
:101C000080503060FEF780FC054600BF30688000E1
:101C100007D4FEF779FC401B022884BF032070BD67
:101C2000F4E72069716908437061002070BD00000D
:101C30007047000010B504460420FFF7FDFC40F299
:101C40001000C2F20000046010BD0000FEF762BC8C
:101C5000B0B598B006AC201D2821FEF721FB00206E
:101C60000025FEF7F5FC1020069001206021CDE94B
:101C70000D050F910221CDE911101390372014901A
:101C80000720CDE9150120461791FFF739F90F20FC
:101C900001900320CDE9020501A80521CDE90455F5
:101CA000FEF786FF18B0B0BD41F20C00C4F202008E
:101CB00050F80C1C090703D4D0F88810090A02E078
:101CC00050F80C1C090942F2384250F8043C01F06B
:101CD0000F01C0F6000252F82110C3F38102DFE8C1
:101CE00002F02702070C42F20041C0F2F4011FE0AB
:101CF00042F20041C0F2F4011AE002680368920760
:101D000042F20042C3F30313C0F2F40258BF0A4682
:101D100001680133B2FBF3F2C1F30621036801FB52
:101D200002F1C3F34162022303EB4202B1FBF2F181
:101D300040F20C02C2F20002116050F8040C42F2B0
:101D40002043C0F30310C0F60003185C21FA00F032
:101D5000106070474EF68850CEF20000016841F4E2
:101D6000700101607047000080B5816ACA070CD11C
:101D70008A0715D44A071ED40A0727D4CA0630D4C6
:101D80008A0639D44A0657D541E00268D0F82CC0FB
:101D9000536823F4003343EA0C0353608A07E9D500
:101DA0000268D0F830C0536823F4803343EA0C0350
:101DB00053604A07E0D50268D0F834C0536823F472
:101DC000802343EA0C0353600A07D7D50268D0F892
:101DD00038C0536823F4004343EA0C035360CA0637
:101DE000CED50268D0F83CC0936823F4805343EA10
:101DF0000C0393608A06C5D50268D0F840C093688A
:101E000023F4005343EA0C0393604A0614D5026896
:101E1000D0F844C05368BCF5801F23F4801343EA14
:101E20000C03536008D1D2F804C0D0F848E02CF479
:101E3000C00343EA0E035360090658BF80BD016822
:101E4000C06C4A6822F400221043486080BD000044
:101E5000B0B504460020C4F88C00FEF755FB21689D
:101E600005460A6812070DD4086840071CD42020D4
:101E7000C4F88400C4F888000020E0660021C4F89B
:101E80008010B0BDC8698002EED4FEF73DFB21682A
:101E9000421B0868B2F1007F2ED2400744BFC869D8
:101EA0005FEA0050EED510E0C8694002DFD4FEF7CB
:101EB0002BFB2168421B0868B2F1007F1CD240074F
:101EC00044BFC8695FEA0050EED54FF40060086275
:101ED000086820F4D0700860886820F001008860ED
:101EE0002020C4F88400C4F88800C4F88C000320C3
:101EF0000021C4F88010B0BD20F4D070086088685C
:101F000020F0010088602020C4F88400C4F8880014
:101F100003200021C4F88010B0BD000070B5044655
:101F20002269D4E90213E6690A4361690068114332
:101F3000626E31430568114346F6F312CCF6FF7228
:101F40002A4011430160416848F2000C21F44051DD
:101F500019434160A269C4F2000C60451CBF216AAC
:101F60000A4381684FF2FF43C1F2FF131940114346
:101F70008160C16AD4F824E021F00F0141EA0E012A
:101F8000C16244F6FF71C4F2000188424FF01003B1
:101F900018DC44F20041C4F20001884227D044F624
:101FA0000001C4F20001884228D044F60041C4F286
:101FB000000188423ED141F28801C4F20201096861
:101FC0008B092FE045F20001C4F2000188421CD0C9
:101FD000604521D043F60001C4F20101884229D1B5
:101FE00041F28801C4F202010B6875A21EE041F2C1
:101FF0008801C4F2020109688B0813E041F28801EC
:10200000C4F2020109680B090CE041F28801C4F234
:10201000020109680B0A05E041F28801C4F20201DD
:1020200009688B0A42F29042C0F6000203F00301F5
:1020300052F82130604542F20040C0F2F40013D063
:10204000B6F5004F20D1082B4FF0010100F2B0800F
:10205000DFE803F0056270AE68AEAEAE6E00FEF76C
:10206000C9FE00285BD161E0082B4FF0010100F2AE
:102070009F80DFE803F0051A289D209D9D9D260086
:10208000FEF7B8FEA0B91AE0082B4FF0010100F2EC
:102090008F80DFE803F0056A788D708D8D8D760076
:1020A000FEF7A8FE002863D169E0FEF7BDFE30B15F
:1020B000D4F824E007E0FEF7D1FE0028F8D1002193
:1020C00076E04FF4004042F27841C0F6000131F86A
:1020D0001E106268B0FBF1F002EB420188424FF043
:1020E000010165D31303984262D8010E000210EB80
:1020F000520041F100010023FEF79AF84FF6FF422B
:10210000A0F54071C0F20F02914203D82168C86067
:1021100000214DE001214BE0FEF786FE30B1D4F8FE
:1021200024E007E0FEF79AFE0028F8D100213FE006
:102130004FF4004042F27841C0F6000131F81E1021
:102140006268B0FBF1F0510801EB4000B0FBF2F126
:102150004FF6F070084006D0C1F3420122680843F0
:10216000D060002124E0012122E0FEF75DFE30B1C5
:10217000D4F824E007E0FEF771FE0028F8D1002132
:1021800016E04FF4004042F27841C0F6000131F809
:102190001E10B0FBF1F0616800EB5100B0FBF1F0F4
:1021A00080B2102803D32168C860002100E001211B
:1021B0004FF00110A066002208462267626770BDDA
:1021C0000100000004000000020000000800000000
:1021D0002DE9F041064600681446C2690D461140DB
:1021E000491BB1FA81F14909A1422AD1DDF81880D1
:1021F000B8F1000F28D018F101013BD1C169294085
:10220000491BB1FA81F14909A1421CBF0020BDE878
:10221000F081C1692940491BB1FA81F14909A14204
:102220000FD1C1692940491BB1FA81F14909A14285
:1022300007D1C1692940491BB1FA81F14909A1427D
:10224000DCD00020BDE8F081FEF75EF9306801685F
:1022500021F4D0710160816821F0010181602020AA
:10226000C6F88400C6F888000020C6F88000032065
:10227000BDE8F0811F4600BFFEF746F9C01B404590
:10228000E4D830680168490744BFC1695FEA015179
:102290000BD4C0692840401BB0FA80F04009A0422E
:1022A0001CBF0020BDE8F081E6E74FF40061016249
:1022B000016821F4D0710160816821F00101816021
:1022C0002020C6F88400C6F88800C6F88C000020DC
:1022D000C6F880000320BDE8F0810000FEE70000A2
:1022E00080B54EF2180140F21002CEF20001C2F2A7
:1022F000000251F804CC1268002302FB00FE0868BB
:1023000008E003449B1A904298BF6344734510460B
:1023100028BF80BD0A689042F3D10A689042F0D18C
:102320000A689042EDD10A689042F3D0E9E70000D4
:1023300080B582B0019040F21400C2F2000001A901
:1023400001224FF6FF73FFF7ADFA019802B080BD8E
:1023500086B040F60004C4F20224FEF7E9F8FFF765
:1023600077FC0020059041F24C00C4F202000168A5
:10237000012241F0040101600068802100F00400A6
:1023800000900098204680250126FEF7B7F803202C
:10239000CDE90156049001A920460396FDF7C2FF3E
:1023A0006E20FFF747FCFFF7EFFAFFF713FB06A0DD
:1023B00000F00EF820468021FEF798F84FF47A706E
:1023C000FFF78EFFF6E700BF5445535400000000AE
:1023D000014A024900F013B8312300080000002030
:1023E00002E008C8121F08C1002AFAD170477047DE
:1023F000002001E001C1121F002AFBD170472DE926
:10240000F04116460F460446002503E03946B04722
:10241000641C6D1C20780028F8D12846BDE8F081A6
:102420000000000000000000010203040607080984
:102430000000000001020304A0860100400D03001B
:10244000801A060000350C0040420F0080841E00F8
:1024500000093D0000127A000024F40000366E01ED
:102460000048E801006CDC020000000000000000F1
:10247000000000000000000001000200040006004F
:1024800008000A000C00100020004000800000013D
:10249000000000000400000002000000080000002E
:1024A0000101010307010000080402040801010101
:1024B000D02400080000002010000000E0230008E5
:1024C000E02400081000002098040000F023000819
:1024D00000000000080000000100000000093D00AD
:04000005080001F5F9
:00000001FF
